:020000040800F2
:100000005043002061040008E1010008E3010008FA
:10001000ED010008EF010008F101000800000000F8
:10002000000000000000000000000000F3010008D4
:10003000F501000800000000F7010008F9010008C0
:100040007B0400087B0400087B0400087B04000894
:100050007B0400087B0400087B0400087B04000884
:100060007B0400087B0400087B0400087B04000874
:100070007B0400087B0400087B0400087B04000864
:100080007B0400087B0400087B0400087B04000854
:100090007B0400087B0400087B0400087B04000844
:1000A0007B0400087B0400087B0400087B04000834
:1000B0007B040008FB010008AD3D00087B0400083C
:1000C0007B0400087B0400087B0400087B04000814
:1000D0007B0400085D2B00087B0400087B040008FB
:1000E0007B0400087B0400087B04000800F002F891
:1000F00000F065F80AA090E8000C82448344AAF15D
:100100000107DA4501D100F05AF8AFF2090EBAE85A
:100110000F0013F0010F18BFFB1A43F0010318473B
:1001200040560000605600000A444FF0000C10F8E2
:10013000013B13F0070408BF10F8014B1D1108BF65
:1001400010F8015B641E05D010F8016B641E01F805
:10015000016BF9D113F0080F1EBF10F8014BAD1C55
:100160000C1B09D16D1E58BF01F801CBFAD505E073
:1001700014F8016B01F8016B6D1EF9D59142D6D3CD
:10018000704700000023002400250026103A28BFF5
:1001900078C1FBD8520728BF30C148BF0B607047F9
:1001A000642904F00780782904F04080732904F062
:1001B0009481002070471FB51FBD10B510BD04F01D
:1001C000A7F91146FFF7F7FF02F0FCFC04F0C5F9B0
:1001D00003B4FFF7F2FF03BC02F03EFC30BF0000A7
:1001E00070471AA003F076FF00BFFEE77047704724
:1001F0007047704770477047704710B501211A4823
:1002000002F01CFA19480068401C18490860184898
:10021000006828B117480068401C1649086002E0D1
:1002200000201449086014480088401C12490880C6
:10023000084600880A2807D110480068401C0F496A
:10024000086000200C49088010BD00000D0A4861BC
:1002500072644661756C745F48616E646C6572208F
:100260004552524F520D0A000004004088090020F8
:10027000A0090020940900200000002004000020B4
:100280000CB50020019000906C48006840F480306C
:100290006A49086000BF6948006800F400300090B7
:1002A0000198401C0190009818B90198B0F5A06F12
:1002B000F1D16248006800F4003010B101200090D4
:1002C00001E0002000900098012843D15C480068BC
:1002D00040F010005A4908600846006820F003000A
:1002E00008600846006840F0020008605348406813
:1002F000524948600846406848600846406840F4F3
:10030000806048600846406820F47C1048600846D9
:10031000406840F4E81048600846006840F080708B
:10032000086000BF4548006800F000700028F9D060
:100330004248406820F00300404948600846406851
:1003400040F00200486000BF3C48406800F00C00EC
:100350000828F9D10CBD10B5FFF792FF10BD10B5FC
:100360003648006840F0010034490860084640689B
:10037000344908403149486008460068324908401D
:100380002E4908600846006820F48020086008466E
:10039000406820F4FE0048604FF41F008860FFF7BB
:1003A000DAFF4FF000602949086010BD10B5002148
:1003B00000200022214B5B6803F00C0121B10429CD
:1003C00006D0082928D107E0214B224C236027E0E2
:1003D0001F4B204C236023E0184B5B6803F4701024
:1003E000164B5B6803F48032022303EB904022B982
:1003F000194B4343174C23600DE0104B5B6803F42B
:10040000003323B1144B4343124C236003E0104BE1
:100410004343104C236003E00D4B0E4C236000BFA0
:1004200000BF064B5B68C3F303130C4CE15C094B44
:100430001B68CB40074C236010BD00000010024039
:10044000002002400000FFF8FFFFF6FE08ED00E08C
:1004500000127A000800002000093D000C00002076
:100460000948804709480047FEE7FEE7FEE7FEE748
:10047000FEE7FEE7FEE7FEE7FEE7FEE70448054984
:10048000054A064B704700005F030008ED000008B6
:10049000503D002050430020503F0020503F00209E
:1004A00031490143314A1160704770B50021002382
:1004B0000F22C47804B32D4C246804F4E064C4F51E
:1004C000E064210AC1F10403CA40447804FA03F14C
:1004D0008478144021430901254C0678A1550478FD
:1004E00004F01F050124AC4005786D11AD0005F145
:1004F000E025C5F8004109E0047804F01F05012457
:10050000AC401C4D0678761145F8264070BD1A4A5D
:100510000A400243154B1B1F1A60704739B1134A3A
:10052000121D12680243114B1B1D1A6006E00F4A90
:10053000121D126882430D4B1B1D1A607047042860
:1005400008D14FF0E021096941F004014FF0E022A9
:10055000116107E04FF0E021096921F004014FF03B
:10056000E0221161704700000000FA050CED00E088
:1005700000E400E080E100E080FFFF1F002044492C
:100580000860091D0860091D0860091D08604148D0
:100590003F4914310860704700213D498279002AA3
:1005A0003AD00A46126803689A430B461A600A1D3D
:1005B000126803689A430B1D1A60027911440A6895
:1005C00003681A430A60324A0832126803689A4381
:1005D0002F4B08331A601A1D126803689A432C4B7C
:1005E0000C331A604279102A0ED11A1F1268036860
:1005F0001A43274B08331A601A1D126803681A43FE
:10060000234B0C331A600DE02149427911440A68EA
:1006100003681A430A6005E0027911440A68036816
:100620009A430A6070470021016001710C214171F9
:100630000021817170471649103109680143144A3D
:1006400010321160704701460020114A14321268BE
:100650000A400AB1012000E0002070470C49143123
:1006600008607047014600200022094B1B6803EA1E
:100670000102074B14331B680B4013B10AB1012070
:1006800000E0002070470249143108607047000004
:1006900000040140FFFF0F0010B50446CC4884421F
:1006A00008D10121042000F02DFB0021042000F0DE
:1006B00029FB46E0C748844208D10121082000F008
:1006C00021FB0021082000F01DFB3AE0C2488442D3
:1006D00008D10121102000F015FB0021102000F0AE
:1006E00011FB2EE0BD48844208D10121202000F0FA
:1006F00009FB0021202000F005FB22E0B8488442DD
:1007000008D10121402000F0FDFA0021402000F036
:10071000F9FA16E0B348844208D10121802000F0A4
:10072000F1FA0021802000F0EDFA0AE0AE488442A0
:1007300007D10121801500F0E5FA0021A01500F095
:10074000E1FA10BD10B50121084600F0DBFA0021E6
:10075000012000F0D7FA10BD2DE9F0410246002536
:100760000026002000230024002791F803C00CF08D
:100770000F0591F803C00CF0100CBCF1000F03D072
:1007800091F802C04CEA050591F800C0BCF1000FD9
:1007900031D0146800202BE04FF0010C0CFA00F36C
:1007A000B1F800C00CEA03069E4220D183004FF04E
:1007B0000F0C0CFA03F7BC4305FA03FC4CEA0404E3
:1007C00091F803C0BCF1280F06D14FF0010C0CFAD0
:1007D00000FCC2F814C00AE091F803C0BCF1480F55
:1007E00005D14FF0010C0CFA00FCC2F810C0401CFF
:1007F0000828D1D31460B1F800C0BCF1FF0F34DD7C
:10080000546800202EE000F1080C4FF0010808FAAF
:100810000CF3B1F800C00CEA03069E4221D183001C
:100820004FF00F0C0CFA03F7BC4305FA03FC4CEA3B
:10083000040491F803C0BCF1280F05D100F1080CA5
:1008400008FA0CF8C2F8148091F803C0BCF1480F04
:1008500007D100F1080C4FF0010808FA0CF8C2F8B3
:100860001080401C0828CED35460BDE8F0814FF6BC
:10087000FF710180022181700421C170704702461E
:10088000002093680B400BB1012000E0002070476E
:100890000146886880B2704702460020D3680B404A
:1008A0000BB1012000E0002070470146C86880B20B
:1008B000704701617047416170470AB1016100E012
:1008C00041617047C16070474FF480320A438261D2
:1008D0008161826182698269704702460020434BD0
:1008E00018684FF68073184040EA021008433F4BE7
:1008F000186070473E49C8617047F0B50A4600234A
:1009000000240021002500F00046B6F1004F02D17E
:10091000364EF16901E0354E7168C0F3034583B28C
:1009200000F44016B6F5401F08D121F070612F4E3B
:10093000766826F070662D4F7E6012E000F4801617
:10094000B6F5801F06D1032606FA05F4A14341F04F
:10095000706106E0460D360103FA06F6B14341F038
:10096000706122B1460D360103FA06F6314300F0FC
:100970000046B6F1004F02D11C4EF16101E01B4E62
:100980007160F0BD30B500228B071C0F0F2303FAF6
:1009900004F2164B08338C1053F824309343134C55
:1009A00008348D1044F8253023468C1053F8243039
:1009B0008C07240F00FA04F423430C4C08348D10E8
:1009C00044F8253030BD0A49DC310860704700002A
:1009D00000080140000C01400010014000140140DB
:1009E00000180140001C01400020014000000140AF
:1009F00000002042DF48006840F00100DD49086047
:100A000008464068DC490840DA4948600846006802
:100A1000DA490840D74908600846006820F4802079
:100A200008600846406820F4FE0048604FF41F004C
:100A300088607047CF49096821F48031CD4A116040
:100A40001146096821F480211160B0F5803F03D080
:100A5000B0F5802F0ED106E0C649096841F4803117
:100A6000C44A116007E0C349096841F4A021C14AA2
:100A7000116000E000BF00BF704710B501460022C2
:100A8000002300204A11012A02D1BA4C236806E053
:100A9000022A02D1B74C236A01E0B64C636A01F026
:100AA0001F02012494401C400CB1012000E00020F2
:100AB00010BD38B5002000900024002500BF312073
:100AC000FFF7DBFF05460098401C00900098B0F54A
:100AD000A06F01D0002DF2D03120FFF7CEFF08B17A
:100AE000012400E00024204638BD01460020A14A30
:100AF000106820F0F80040EAC10010607047A0497B
:100B000008607047024600209A4B586820F47C1019
:100B100042EA01031843974B5860704798490866AA
:100B2000704701460020934A506820F003000843B4
:100B3000506070478F48406800F00C0070470146D5
:100B400000208C4A506820F0F00008435060704745
:100B500001460020874A506820F4E0600843506056
:100B6000704701460020834A506820F4605040EAF4
:100B7000C1005060704729B17E4A527A02437D4BD2
:100B80005A7204E07B4A527A82437A4B5A72704717
:100B90007B49D8310860704701460020754A50688B
:100BA00020F440400843506070470021714A2032D1
:100BB0001170704A82F82010012802D004280AD14E
:100BC00004E001216B4A2032117005E00521694AD9
:100BD0002032117000E000BF00BF70476949086013
:100BE00070476449096A0143624A11627047654966
:100BF00044390860704730B50021002200240023EA
:100C00005C4D6D6805F00C0121B1042905D008295F
:100C100023D105E05C4D056022E05B4D05601FE0DF
:100C2000544D6D6805F47012524D6D6805F48034B2
:100C3000022505EB92421CB9544D554305600BE06B
:100C40004C4D6D6805F400351DB1504D55430560A0
:100C500002E04D4D5543056002E04B4D056000BF7D
:100C600000BF444D6D6805F0F0010909484D6B5C0B
:100C70000568DD4045603F4D6D6805F4E061090A97
:100C8000434D6B5C4568DD4085603A4D6D6805F409
:100C90006051C90A3E4D6B5C4568DD40C560354D0D
:100CA0006D6805F44041890B3A4D6B5CC568B5FB36
:100CB000F3F5056130BD29B12E4A526902432D4B2F
:100CC0005A6104E02B4A526982432A4B5A617047A9
:100CD00029B1284A92690243264B9A6104E0254AC9
:100CE00092698243234B9A61704729B1214AD269A4
:100CF0000243204BDA6104E01E4AD26982431D4B55
:100D0000DA61704729B11B4AD2680243194BDA6095
:100D100004E0184AD2688243164BDA60704729B162
:100D2000144A12690243134B1A6104E0114A126912
:100D30008243104B1A61704712494039086070476E
:100D40000F49C86470470B49C87170470948406A29
:100D500040F0807007494862704701460020054A0C
:100D600092680A400AB1012000E000207047014962
:100D700088727047001002400000FFF8FFFFF6FE87
:100D8000000042428004424200127A0000093D0005
:100D90001C0000202C00002010B50446F6488442B8
:100DA00009D101218803FFF7ADFF00214FF48040F6
:100DB000FFF7A8FF32E0F148844209D1012148043D
:100DC000FFF7ADFF00214FF40030FFF7A8FF25E04B
:100DD000EB48844209D101218804FFF7A0FF0021DC
:100DE0004FF48020FFF79BFF18E0E648844209D1CA
:100DF0000121C804FFF793FF00214FF40020FFF703
:100E00008EFF0BE0E048844208D101210805FFF77E
:100E100086FF00214FF48010FFF781FF10BD2DE900
:100E2000F04786B005460E460024A24600BFA14604
:100E30000027B08900B100BF2F462C8A4CF6FF7006
:100E40000440F08804432C82AC894EF6F310044031
:100E5000B08831890843718908430443AC81AC8A66
:100E60004FF6FF400440B0890443AC8201A8FFF76D
:100E7000C2FEC148874202D1DDF810A001E0DDF8D2
:100E80000CA0A88900F4004040B10AEBCA0000EBB6
:100E90000A1031684900B0FBF1F807E00AEBCA001C
:100EA00000EB0A1031688900B0FBF1F86420B8FB50
:100EB000F0F004012009642101FB1089A88900F4E5
:100EC000004040B1322000EBC900B0FBF1F000F06F
:100ED0000700044308E0322000EB09106421B0FB56
:100EE000F1F000F00F0004432C8106B0BDE8F0875C
:100EF0004FF41651016000218180C18001810C21D5
:100F0000418100218181704710B502460020108A7E
:100F10004FF2FF0318400B884C8823438C882343EF
:100F2000CC8823431843108210BD002101804180EA
:100F30008180C180704721B1828942F40052828150
:100F400004E082894DF6FF731A4082817047F0B544
:100F50000346002400260025002040F66A17B94207
:100F600000D100BF1846C1F3421401F01F0601274B
:100F700007FA06F5012C01D10C3004E0022C01D156
:100F8000103000E014301AB107682F43076002E008
:100F90000768AF430760F0BD1AB1838A0B438382B1
:100FA00002E0838A8B4383827047028A4FF6F07394
:100FB0001A400282028A0A430282704782894FF2F3
:100FC000FF731A40828182890A438281704721B16E
:100FD000828942F00202828104E082894FF6FD7329
:100FE0001A4082817047028A4FF6DF731A400282EC
:100FF000028A0A430282704721B1028A42F4804287
:10100000028204E0028A4BF6FF731A4002827047A4
:10101000C1F30802828000BF028802F04002002A69
:10102000FAD0704701468888C0F30800704781896C
:1010300041F0010181817047028BD2B20283028BA1
:1010400042EA012202837047028B02F47F4202834C
:10105000028B0A430283704721B1828A42F0200248
:10106000828204E0828A4FF6DF731A4082827047E0
:1010700021B1828A42F01002828204E0828A4FF615
:10108000EF731A408282704721B1828A42F00802CF
:10109000828204E0828A4FF6F7731A408282704798
:1010A00021B1828942F40042828103E08289C2F345
:1010B0000E028281704721B1828A42F400628282EC
:1010C00004E0828A4FF2FF731A4082827047828A5C
:1010D0004FF6FB731A408282828A0A4382827047EB
:1010E00021B1828A42F00202828204E0828A4FF6B3
:1010F000FD731A408282704702460020B1F5007FDE
:1011000000D100BF13880B400BB1012000E000208C
:10111000704701F40072B2F5007F00D100BFCA43EE
:101120000280704770B5024600240023002500208D
:1011300040F66A16B14200D100BFC1F3421501F07A
:101140001F03012606FA03F3012D02D196893340CD
:1011500006E0022D02D1168A334001E0968A334020
:101160000C12012606FA04F41688344013B10CB1AF
:10117000012000E0002070BD003801400044004024
:1011800000480040004C00400050004010B50022D4
:10119000002340F66A14A14200D100BF0A120124C4
:1011A0009440A3B2DC43048010BD000010B5044697
:1011B000FA48844208D101214015FFF7A3FD002120
:1011C0006015FFF79FFD17E0F548844208D1012123
:1011D0000015FFF797FD00212015FFF793FD0BE0A9
:1011E000F048844208D10121C803FFF78BFD00219C
:1011F0004FF40040FFF786FD10BD30B502460020D9
:1012000000235068E84C20400D790C6844EA05241E
:10121000204350609068E54C2040D1E902542C43B3
:101220004D7944EA450420439060D06A20F4700070
:101230000C7C641EE4B2234340EA0350D06230BD0C
:1012400000210160017141718160C160012101745F
:10125000704721B1826842F00102826003E0826837
:1012600022F001028260704721B1826842F48072EC
:10127000826003E0826822F480728260704710B559
:101280000023CBB21AB144681C43446002E04468B6
:101290009C43446010BD816841F008018160704743
:1012A000014600208A6802F008020AB1012000E02D
:1012B00000207047816841F0040181607047014659
:1012C00000208A6802F004020AB1012000E0002038
:1012D000704721B1826842F4A002826003E0826814
:1012E00022F4A00282607047014600208A6802F45E
:1012F00080020AB1012000E00020704710B50A46C4
:1013000000210023416821F46041531E41EA43312A
:10131000416010BD21B1426842F40062426003E0C6
:10132000426822F4006242607047F0B504460D4600
:1013300000200021092D11DDE068A5F10A0606EB69
:101340004607072606FA07F18843A5F10A0606EBC9
:10135000460603FA06F10843E0600CE0206905EB5D
:101360004507072606FA07F1884305EB450603FA09
:1013700006F108432061072A0FDA606B561E06EB60
:1013800086071F2606FA07F18843561E06EB8606D7
:1013900005FA06F10843606322E00D2A0FDA206B9C
:1013A000D61F06EB86071F2606FA07F18843D61FCD
:1013B00006EB860605FA06F10843206310E0E06AB2
:1013C000A2F10D0606EB86071F2606FA07F18843F1
:1013D000A2F10D0606EB860605FA06F10843E06267
:1013E000F0BD21B1826842F48012826003E082681D
:1013F00022F48012826070470146C86C80B2704748
:1014000066484C300068704721B1426842F48062FF
:10141000426003E0426822F480624260704721B17A
:10142000426842F48052426003E0426822F48052F3
:10143000426070470A460021816821F4E04111436F
:101440008160704721B1826842F40042826003E00B
:10145000826822F400428260704721B1826842F4BF
:101460000212826003E0826822F4021282607047F6
:10147000014600208A6802F400120AB1012000E04F
:1014800000207047F0B504461546002000220026D3
:10149000092911DDE068A1F10A0707EB470C0727CE
:1014A00007FA0CF29043A1F10A0707EB470703FA8A
:1014B00007F21043E0600CE0206901EB410C0727C4
:1014C00007FA0CF2904301EB410703FA07F21043CD
:1014D0002061A06BC0F30156EF1C06F1010CA7EBD5
:1014E0000C0707EB870C1F2707FA0CF29043EF1C41
:1014F00006F1010CA7EB0C0707EB870701FA07F2CF
:101500001043A063F0BD10B50A4600210023816B93
:1015100021F44011531E41EA0351816310BD08B507
:10152000002300930090009B0B440093009B1A60E3
:1015300008BD08B5024600200090009201F1280085
:10154000009B184400900098006880B208BD0A46CD
:1015500000214168164B19401143416070474162B8
:10156000826270470A460021416821F01F01114341
:101570004160704740B109490831096841F40001F0
:10158000064A0832116007E004490831096821F46D
:101590000001024A08321160704700000024014037
:1015A00000280140003C0140FFFEF0FFFDF7F1FF85
:1015B000FFFD3FFF0246002013680B400BB10120E6
:1015C00000E000207047CA430260704770B50246D1
:1015D0000020002300240B125568CEB205EA060451
:1015E00015681D4015B10CB1012000E0002070BD50
:1015F00000220A12D34303607047000001684FF6CF
:10160000FE72114001600021016041608160C16093
:101610008D49884208D18C490839496841F00F0149
:10162000894A083A51608AE087491431884208D1D2
:1016300085490839496841F0F001834A083A516008
:101640007DE081492831884208D17F4908394968BD
:1016500041F470617C4A083A516070E07A493C314B
:10166000884208D178490839496841F47041764A7E
:10167000083A516063E074495031884208D1724998
:101680000839496841F470216F4A083A516056E0C0
:101690006D496431884208D16B490839496841F481
:1016A0007001694A083A516049E0674978318842D7
:1016B00008D165490839496841F07061624A083AC1
:1016C00051603CE06149884206D1011F096841F040
:1016D0000F01021F116032E05C491431884208D1C9
:1016E0005A49091F096841F0F001584A121F116058
:1016F00025E056492831884208D15449091F096814
:1017000041F47061514A121F116018E04F493C3199
:10171000884208D14D49091F096841F470414B4A7C
:10172000121F11600BE049495031884207D14749E7
:10173000091F096841F47021444A121F1160704763
:1017400010B50022026847F6F0739A430C6A8B6862
:1017500023430C6923434C6923438C692343CC699D
:1017600023434C6A23438C6A23431A430260CB68A9
:1017700043600B6883604B68C36010BD002101604B
:1017800041608160C160016141618161C16101624B
:1017900041628162704721B1026842F00102026039
:1017A00004E002684FF6FE731A40026070471AB1F7
:1017B00003680B43036002E003688B4303607047D8
:1017C000416070470146486880B27047014600207A
:1017D000002201F080531BB11C4B083B1A6802E049
:1017E000194B083B1A6802EA01030BB1012000E023
:1017F0000020704700F0805119B11449091F08609A
:1018000002E0114908394860704701460020002273
:1018100001F080531BB10D4B083B1A6802E00A4BE4
:10182000083B1A6802EA01030BB1012000E0002026
:10183000704700F0805119B10449091F086002E0A7
:101840000149083948607047080002400804024016
:1018500010B50446FE48844208D10121C014FFF7A8
:1018600051FA0021E014FFF74DFAC4E0B4F1804FC3
:1018700008D101210846FFF752FA00210120FFF7A5
:101880004EFAB8E0F348844208D101210220FFF764
:1018900046FA00210220FFF742FAACE0EE4884420B
:1018A00008D101210420FFF73AFA00210420FFF7B4
:1018B00036FAA0E0E948844208D101210820FFF768
:1018C0002EFA00210820FFF72AFA94E0E448844227
:1018D00008D101211020FFF722FA00211020FFF784
:1018E0001EFA88E0DF48844208D101212020FFF75A
:1018F00016FA00212020FFF712FA7CE0DA48844231
:1019000008D101214014FFF7FDF900216014FFF711
:10191000F9F970E0D548844209D10121C804FFF7E4
:10192000F1F900214FF40020FFF7ECF963E0D04813
:10193000844209D101210805FFF7E4F900214FF4A1
:101940008010FFF7DFF956E0CA48844209D101212F
:101950004805FFF7D7F900214FF40010FFF7D2F93F
:1019600049E0C548844208D101214020FFF7D7F95A
:1019700000214020FFF7D3F93DE0C048844208D160
:1019800001218020FFF7CBF900218020FFF7C7F964
:1019900031E0BB48844208D101218015FFF7BFF92F
:1019A0000021A015FFF7BBF925E0B648844209D114
:1019B00001210804FFF7A6F900214FF48030FFF75A
:1019C000A1F918E0B048844209D101214804FFF789
:1019D00099F900214FF40030FFF794F90BE0AB4880
:1019E000844208D101218804FFF78CF900214FF4CB
:1019F0008020FFF787F910BD00220288944B98429F
:101A00000ED0994B98420BD0B0F1804F08D0914B3B
:101A1000984205D0904B984202D0904B984204D106
:101A20004FF68F731A404B881A438D4B984207D05C
:101A30008C4B984204D04FF6FF431A40CB881A4390
:101A400002808B8883850B880385814B98420BD05D
:101A5000854B984208D08B4B984205D08A4B9842D0
:101A600002D08A4B984201D10B7A038601238382EC
:101A7000704770B5002400220023058C4FF6FE76D7
:101A800035400584028C8388048B4FF68F752C407B
:101A9000B51E2C400D882C43751E2A400D892A4303
:101AA0004D882A436A4DA8420BD06F4DA84208D0FA
:101AB000744DA84205D0744DA84202D0734DA8427F
:101AC00013D14FF6F7752A404D892A434FF6FB751F
:101AD0002A408D882A434FF6FF652B404FF6FF556D
:101AE0002B408D892B43CD892B4383800483CD8864
:101AF0008586028470BD70B5002400220023058C09
:101B00004FF6EF7635400584028C8388048B48F6C7
:101B1000FF752C404FF6FF452C400D884FF6FF76A1
:101B200006EA05252C434FF6DF752A400D8906EAA3
:101B300005152A434D8806EA05152A43444DA84257
:101B400002D0494DA8421DD14FF67F752A404D89DC
:101B50004FF6FF7606EA05152A434FF6BF752A4071
:101B60008D8806EA05152A434FF6FF352B404FF2C4
:101B7000FF752B408D8906EA85052B43CD8906EA42
:101B800085052B4383800483CD880587028470BD3F
:101B900070B5002400220023058C4FF6FF66354007
:101BA0000584028C8388848B4FF68F752C404FF60A
:101BB000FC752C400D882C434FF6FF552A400D89AB
:101BC0004FF6FF7606EA05252A434D8806EA0525E5
:101BD0002A431F4DA84202D0234DA8421DD14FF2E7
:101BE000FF752A404D894FF6FF7606EA05252A4300
:101BF0004FF6FF352A408D8806EA05252A434EF622
:101C0000FF752B404DF6FF752B408D8906EA0515B3
:101C10002B43CD8906EA05152B4383808483CD8829
:101C20008587028470BD70B5002200230024058CD6
:101C30004EF6FF7635400584038C8488828B48F607
:101C4000FF752A404FF6FF452A400D8820E000002E
:101C5000002C01400004004000080040000C00403F
:101C6000001000400014004000340140004C0140CE
:101C7000005001400054014000180040001C00408A
:101C80000020004000400140004401400048014065
:101C90004FF6FF7606EA05252A434DF6FF752B40E1
:101CA0000D8906EA05352B434D8806EA05352B4399
:101CB000FA4DA84202D0FA4DA84208D14BF6FF7562
:101CC0002C408D894FF6FF7606EA85152C438480DB
:101CD0008283CD88A0F84050038470BD828B4FF280
:101CE000FF331A408283828B4FF6FF7303EA01238E
:101CF0001A4382837047F0B50C4615460022002136
:101D00000026078C4EF6FF7C07EA0C070784828BBF
:101D1000018C4FF6FF7707EA043640F6FF473A405A
:101D20004FF6FF7707EA05273A434FF6FF7707EAB2
:101D300003373A43D94FB8420ED0D94FB8420BD0EF
:101D4000B0F1804F08D0D74FB84205D0D64FB84237
:101D500002D0D64FB84206D14DF6FF77394046F44F
:101D60008057394305E047F6FF57394044F4805720
:101D7000394382830184F0BD828B4FF6F3731A409E
:101D80008283828B0A4382837047F0B50C461546E6
:101D9000002200210026078C4FF6FF6C07EA0C0793
:101DA0000784828B018C4FF6FF7707EA04264FF6F3
:101DB0000C773A404FF6FF7707EA03172F433A4371
:101DC000B64FB8420ED0B64FB8420BD0B0F1804FEC
:101DD00008D0B44FB84205D0B34FB84202D0B34F89
:101DE000B84206D14FF6FF57394046F48077394361
:101DF00005E04FF2FF57394044F48077394382833E
:101E00000184F0BD028B4FF2FF331A400283028B34
:101E10004FF6FF7303EA01231A4302837047F0B5BC
:101E20000C461546002200210026078C4FF6EF7C59
:101E300007EA0C070784028B018C4FF6FF7707EA4D
:101E4000041640F6FF473A404FF6FF7707EA03379C
:101E50003A434FF6FF7707EA05273A438F4FB842D8
:101E60000ED08F4FB8420BD0B0F1804F08D08D4FBD
:101E7000B84205D08C4FB84202D08C4FB84206D140
:101E80004FF6DF77394046F01007394305E04FF64B
:101E90005F77394044F01007394302830184F0BD75
:101EA000028B4FF6F3731A400283028B0A430283BC
:101EB0007047F0B50C46154600220021068C4FF6FF
:101EC000FE773E400684028B018C4FF60C76324042
:101ED0007E1C06EA03162E433243704EB0420ED0EB
:101EE0006F4EB0420BD0B0F1804F08D06D4EB04273
:101EF00005D06D4EB04202D06C4EB04206D14FF6C6
:101F0000FD76314044F00106314305E04FF6F576A9
:101F1000314044F00106314302830184F0BD70B5C5
:101F200005460C465D4885420ED05D4885420BD083
:101F3000B5F1804F08D05B48854205D05A488542AC
:101F400002D05A48854200D100E000BF208850B935
:101F50002389A28861882846FFF7ABFFE1882846DD
:101F6000FFF79EFF25E0208804280AD12389A28854
:101F700061882846FFF753FFE1882846FFF742FFB4
:101F800017E0208808280AD12389A288618828467A
:101F9000FFF7FBFEE1882846FFF7EEFE09E0238904
:101FA000A28861882846FFF7A6FEE1882846FFF749
:101FB00095FE70BD2DE9F04105460C46002601272F
:101FC000608808B9022600E00026A088012801D117
:101FD000022700E001272088A0B92389A288618810
:101FE0002846FFF766FFE1882846FFF759FF238957
:101FF0003A4631462846FFF712FFE1882846FFF7A8
:1020000001FF13E02389A28861882846FFF707FFB4
:10201000E1882846FFF7F6FE23893A4631462846EE
:10202000FFF747FFE1882846FFF73AFFBDE8F08158
:102030000A884B881A438B881A43CB881A430B892A
:102040001A434B891A438B891A43A0F844207047DE
:102050004FF6FF71818000210180C18041800172B3
:1020600070470021018041808180C18001814181D0
:102070008181C181704700210180418001218180DF
:102080000021C18001817047002101804180818051
:10209000C18001814181818170470000002C014095
:1020A000003401400004004000080040000C0040E3
:1020B00021B1028842F00102028004E002884FF65A
:1020C000FE731A400280704731B1B0F8442042F4E8
:1020D0000042A0F8442005E0B0F84420C2F30E020C
:1020E000A0F8442070471AB183890B43838102E032
:1020F00083898B43838170478182704741EA020361
:10210000A0F8483070471AB183890B43838102E0FD
:1021100083898B438381704701894FF6F8721140A0
:10212000018170470A46002101894FF68F731940DB
:1021300011430181704730B504460D4629462046BB
:10214000FFF7F0FF208940F00700208130BD2DE926
:10215000F04104460D4616461F46602D06D13B460B
:10216000012231462046FFF75AFE05E03B46012298
:1021700031462046FFF79DFE29462046FFF7D2FF55
:10218000208940F007002081BDE8F08130B50C4681
:1021900000210189C9B24FF6FF7505EA03251543F1
:1021A00025432943018130BD2DE9F04105460E4606
:1021B00017469846002443463A4631462846FFF7DC
:1021C000E5FF2C894FF6F870044044F007044FF601
:1021D0008F70044044F070042C81BDE8F081F0B5AC
:1021E00004460D4616461F463B46324629462046C3
:1021F000FFF7CCFF208940F480402081F0BD0185AD
:10220000828270470A46002101884FF68F73194079
:10221000114301807047F0B50C4615461E4600215B
:10222000002200230189028B038C4FF6F877394096
:1022300021434FF6FC473A4040F201173A434FF62C
:10224000DD773B404FF6FF7707EA06172F433B4306
:10225000018102830384F0BD0A460021018B4FF601
:102260008F7319401143018370470A460021018B87
:1022700048F6FF7319404FF6FF7303EA0223194330
:10228000018370470A460021818B4FF68F731940F6
:102290001143818370470A460021818B48F6FF7302
:1022A00019404FF6FF7303EA0223194381837047F5
:1022B00021B1028842F08002028004E002884FF6D9
:1022C0007F731A400280704721B1828842F0040275
:1022D000828004E082884FF6FB731A408280704748
:1022E00021B1828842F00802828004E082884FF6A1
:1022F000F7731A408280704721B1828842F0010250
:10230000828004E082884FF6FE731A408280704714
:102310000A460021018B4FF6F773194011430183E0
:1023200070470A460021018B4FF2FF7319404FF6A8
:10233000FF7303EA02231943018370470A46002111
:10234000818B4FF6F77319401143818370470A461A
:102350000021818B4FF2FF7319404FF6FF7303EAA0
:1023600002231943818370470A460021018B4FF6EF
:10237000FB7319401143018370470A460021018B0A
:102380004FF6FF3319404FF6FF7303EA0223194358
:10239000018370470A460021818B4FF6FB73194079
:1023A0001143818370470A460021818B4FF6FF332A
:1023B00019404FF6FF7303EA0223194381837047E4
:1023C0000A460021018B4FF67F73194011430183A8
:1023D00070470A460021018BC1F30E014FF6FF73CF
:1023E00003EA02231943018370470A460021818BC7
:1023F0004FF67F7319401143818370470A460021CD
:10240000818BC1F30E014FF6FF7303EA02231943D8
:10241000818370470A460021018C4FF6FD731940F5
:102420001143018470470A460021018C4FF6F7736F
:1024300019401143018470470A460021018C4FF670
:10244000DF7319404FF6FF7303EA02131943018447
:1024500070470A460021018C4FF67F7319404FF6F2
:10246000FF7303EA02131943018470470A460021EF
:10247000018C4FF6FF5319404FF6FF7303EA022316
:102480001943018470470A460021018C4FF2FF7303
:1024900019404FF6FF7303EA022319430184704782
:1024A0000A460021018C4DF6FF7319404FF6FF7369
:1024B00003EA023319430184704730B50023012435
:1024C0008C40A3B2048C9C430484048C02FA01F572
:1024D000ADB22C43048430BD30B5002304248C40BD
:1024E000A3B2048C9C430484048C02FA01F5ADB2BF
:1024F0002C43048430BD70B50346002000241846E8
:10250000183001258D40ACB21D8CA5431D8409B146
:10251000082909D100EB6100056825F07005056008
:102520000568154305600EE00D1FC5F34E052844F0
:10253000056825F4E045056005684FF6FF7606EA74
:1025400002263543056070BD21B1028842F00202C7
:10255000028004E002884FF6FD731A400280704743
:1025600021B1028842F00402028004E002884FF6A2
:10257000FB731A400280704721B1828842F08002CA
:10258000828004E082884FF67F731A408280704711
:1025900002884FF6F7731A40028002880A430280CD
:1025A000704782884FF68F731A40828082880A4370
:1025B0008280704702894FF6F8731A4002810289BF
:1025C0000A430281704702894FF67F731A400281E5
:1025D00002890A4302817047818470478185704770
:1025E000818670470187704781877047A0F8401047
:1025F000704702884FF6FF431A40028002880A4360
:10260000028070470146888E70470146088F7047E8
:102610000146888F70470146B1F840007047014677
:10262000888C70470146088D704702460020138A47
:102630000B400BB1012000E000207047CA4302822A
:10264000704730B50246002000230024158A05EAB1
:102650000103958905EA010413B10CB1012000E0E2
:10266000002030BDCA430282704700004FF0E021D5
:10267000096921F004014FF0E0221161C21700EB5B
:102680005272C2F3C7022B4B1A701946097801EB3C
:102690004102C2EBC1114FF6FF7202EAC101264AA4
:1026A000118070470146234A12784A434FF0E023D5
:1026B0005A6100229A611A46126942F001021A61B7
:1026C00000BF4FF0E022106900F001021AB100F4DF
:1026D0008032002AF5D04FF0E022126922F0010288
:1026E0004FF0E0231A6100229A6170470146124AB6
:1026F00012884A434FF0E0235A6100229A611A4639
:10270000126942F001021A6100BF4FF0E022106925
:1027100000F001021AB100F48032002AF5D04FF027
:10272000E022126922F001024FF0E0231A61002238
:102730009A6170473000002032000020B94A1188A9
:102740000A131303C1F3032203EB0223C1F30312A1
:1027500003EB021201F00F031A4491B24D220270F2
:1027600043224270552282704322C270612202715C
:10277000702242713A2282714FF47A7291FBF2F226
:1027800032B14FF47A7291FBF2F23032C27101E051
:102790002022C2714FF47A7291FBF2F302FB131202
:1027A000642392FBF3F230320272642291FBF2F363
:1027B00002FB13120A2392FBF3F2303242720A2216
:1027C00091FBF2F302FB1312303282724B22C2727F
:1027D00062220273704770B50446934805682A4622
:1027E00092A1204601F082FC70BD934A0A40024348
:1027F0008D4B08331A60704710B504462046FDF72C
:102800004FFE10BDF8B504460D4617461E4630462D
:10281000FFF7F2FF8DF800708DF801408DF802503F
:1028200001208DF803006846FDF73FFEF8BD00B5B6
:10283000002082490861C860142048610020886136
:10284000C8610846006840F001000860084640681A
:102850007B49084079494860084600687949084042
:10286000764908600846006820F480200860084621
:10287000406820F4FE0048600020886000214FF08E
:102880000060FFF7B2FF00BD10B567481030006868
:1028900040F004006449103108606848C06940F0A5
:1028A00080506649C8616848406840F48070664955
:1028B00048600846006840F0040008600846006868
:1028C00040F002000860FDF789FC10BD5F485649E2
:1028D0000C31086070475949896941F00101574A34
:1028E00091615B49496821F0E061594A51601146A4
:1028F000496841EA00615160704730B504460025DF
:10290000FFF795FF4D48006840F480304B49086060
:1029100000BF4A480068400C0028FAD04FF480609D
:1029200046494860A01EC4B20846406840EA844058
:1029300048600846406840F4803048604548006878
:1029400040F03200434908603C48006840F0807025
:102950003A49086000BF39480068400E0028FAD0A4
:102960003648406840F002003449486005E033488A
:102970004068C0F3870505F00305022DF7D130BD8F
:1029800001460A2091FBF0F200FB12100A2291FB93
:10299000F2F240EA0210C0B27047014601F00F00A7
:1029A0000A1102EB820200EB4200C0B270470146FE
:1029B0004FF47A7091FBF0F000034FF47A7291FBC0
:1029C000F2F302FB1312642392FBF3F240EA0220BB
:1029D0001A4691FBF2F302FB13120A2392FBF3F265
:1029E00040EA02101A4691FBF2F302FB1312104365
:1029F00080B27047014608134FF47A725043C1F316
:102A0000032202EBC20303EB021200EB8200C1F3CC
:102A1000031202EB820200EB420001F00F021044AD
:102A200080B27047E0F7FF1F00ED00E043505520F3
:102A300049443A253038580080FFFF1F00100240FB
:102A40000000FFF8FFFFF6FE007000400400FA05EA
:102A50000000014000200240014600BF7047C2B2A2
:102A6000544B1A8000BF534A121F128802F04002D2
:102A7000002AF8D0704710B5044612E021784D487E
:102A8000001FFEF7C5FA00BF80214A48001FFEF76D
:102A900033FB0028F8D080214648001FFEF739FBA1
:102AA000641C20780028E9D110BD10B586B004461A
:102AB00040480830008840F480703E490831088062
:102AC0000846008840F0200008804FF4A0632522CB
:102AD00003210846FFF796FE012144F20400FEF7A9
:102AE000F7F83448001FFEF757F94FF40070ADF8BF
:102AF000140003208DF8160018208DF8170005A982
:102B00002D48FDF729FE4FF48060ADF81400042035
:102B10008DF8170005A92848FDF71EFE0194002036
:102B2000ADF80800ADF80A00ADF80C00ADF81000E3
:102B30000C20ADF80E0001A91E48001FFEF76FF92A
:102B4000012240F225511B48001FFEF700FA012127
:102B50001848001FFEF7EFF906B010BD10B540F29F
:102B600025511448001FFEF7DDFA10B31148001F6D
:102B7000FEF758FAC4B21148008800F40040C0B90A
:102B80000E480088C0F30D000D490C540B48008816
:102B9000401C0A490880084600883E2801DD0020C4
:102BA0000880232C05D10548008840F400400349E3
:102BB000088010BD043801400008014038000020A2
:102BC000C40900204820FFF751FD4FF4A060FFF733
:102BD00013FE4FF41650FFF768FF00F006FA01F0FD
:102BE000C4F900F033FB00F0C2FB00F03CFC48F6F7
:102BF0009F4142F20F7001F009F80EE004200749EE
:102C000008604FF4FA70FFF771FD04200349091FB3
:102C100008604FF4FA70FFF769FDEFE7140C01400C
:102C200001B502E00098401E009000980028F9D1FC
:102C300008BD10B54FF4C060FDF732FC10BD70B593
:102C40000346FE480068B0FBF3F1B1F1807F01D389
:102C500001201DE021F07F40401E4FF0E022506136
:102C600050170F22002807DA1407260EF44C00F044
:102C70000F052D1F665503E01407250EF14C255452
:102C800000BF00204FF0E02290610720106100207B
:102C900008B100BFFEE770BD01B5EB4900980860C0
:102CA00000BFE94800680028FBD108BDE64800687D
:102CB00020B1E5480068401EE34908607047E348DA
:102CC0000068E3490860E148001D00684860DF488B
:102CD000083000688860704738B50446DD4951F80F
:102CE00024000121FDF7F4FFDB4830F81400ADF8B3
:102CF000000010208DF8030003208DF80200D74952
:102D000051F824006946FDF727FD38BDD24931F856
:102D10001010D24A52F8202051617047CE4931F844
:102D20001010CE4A52F8202011617047CB4951F85B
:102D30002010C968C84A32F810205140C74A52F8DA
:102D40002020D160704708B501210820FDF7C0FFA1
:102D50004FF48060ADF8000010208DF803000320D0
:102D60008DF802006946BE48FDF7F6FC0120BD491A
:102D7000086008BD0020BB49086070470120B949C0
:102D800008607047B748006808B9012000E00020DB
:102D9000B449086070477FB504460D46B24951F802
:102DA000241041F001000121FDF792FF04208DF86D
:102DB0000F00AE4830F81400ADF80C00AC4951F8E3
:102DC000240003A9FDF7C8FC012D27D1A94A12F858
:102DD0001410A94A12F81400FDF7D4FDA74830F8E2
:102DE0001400019000208DF808000C208DF80900D7
:102DF00001208DF80A0001A8FDF7CEFBA04810F8CD
:102E000014008DF800000F208DF801008DF80200ED
:102E100001208DF803006846FDF747FB7FBD10B524
:102E20000446924A32F81410914A52F82400FDF7F1
:102E300026FD10BD00B59348006838B99248FFF7E9
:102E4000EFFE9048006808B9012000BD8F48006877
:102E500038B98D48FFF7E4FE8C48006808B90220B5
:102E6000F3E78B48006838B98748FFF7D9FE8848F0
:102E7000006808B90320E8E782482038006840B9B4
:102E80008148FFF7CDFE7F482038006808B904204C
:102E9000DBE70020D9E738B504460D467D4951F8F7
:102EA00024107D4A52F82420114341F001000121F1
:102EB000FDF70EFF34B9794951F824000121FDF7DF
:102EC00007FF05E0754951F824000121FDF70DFFCA
:102ED00018208DF80300724830F81400ADF8000097
:102EE00003208DF802006F4951F824006946FDF770
:102EF00033FC04208DF803006B4830F81400ADF863
:102F000000006A4951F824006946FDF725FC68492C
:102F100051F824002946FDF782FF654951F8240045
:102F20000121FEF708F838BD7FB504460D4600952F
:102F30000020ADF80400ADF80600ADF80800ADF8CB
:102F40000C000C20ADF80A0069462046FFF7A3FFED
:102F50000CB958A000E059A001465AA001F0BAF8F7
:102F6000654801F0B7F800230522032163A001F0B2
:102F7000B1F836480838018870A001F0ABF8FDF7C9
:102F800015FA2E4801687BA001F0A4F87FBD70B54A
:102F90000546002400BF20218248FEF7ADF8002836
:102FA000F9D08048001D0088C4B27F49204601F056
:102FB00005FA204670BD08B501211020FDF788FEF6
:102FC0000220ADF8000000208DF803006946774824
:102FD000FDF7C2FB0820ADF8000000208DF80300CB
:102FE00069467248FDF7B8FB08BD00B591B0FFF720
:102FF000E2FF01210846FDF75EFE6D48FEF7FEFA8E
:103000006C4801906C4802900020039002200490CC
:1030100000200590802006904000079080000890D6
:103020002020099000020A9000200B9001A960481E
:10303000FEF786FB01215E48C0E00000080000208A
:1030400018ED00E000E400E03C000020E8F7FF1F7E
:10305000040A0020FC4B0008F44B0008400000204C
:10306000000C0140A88121421C4C0008144C0008AF
:10307000500000203C4C0008344C00082C4C000848
:10308000444C000820012142F04902000C812242F8
:1030900034012242544C00085C4C00084C4C00089F
:1030A000644C000868000020684C00087000002094
:1030B0006000002055534152543100005553415295
:1030C000543200000D0A0A0A0D205757572E41525C
:1030D0004D4A495348552E434F4D202025732070AB
:1030E00072696E746620636F6E6669677572656477
:1030F0002E2E2E2E0000000018570008205757577C
:103100002E41524D4A495348552E434F4D20757319
:1031100065205F5F53544D3332463130585F53540E
:10312000445045524950485F56455253494F4E20EE
:1031300025642E25642E2564000000000A0D20B2AF
:10314000FAC6B7C4DAB2BF466C617368B4F3D0A1F3
:10315000CEAAA3BA25644BD7D6BDDAA3A1200920F5
:103160007777772E61726D6A697368752E636F6DFC
:10317000000000000A0D20CFB5CDB3C4DABACBCA27
:10318000B1D6D3C6B5C2CA2853797374656D436F7F
:103190007265436C6F636B29CEAAA3BA2564487A23
:1031A0002E0A0D00004400403400002000100140B1
:1031B000080002404C24014078000020FEF7EBFAA2
:1031C00001214802FDF784FD00200C9001208DF8BC
:1031D00034008DF835004FF460200E9000200F90E1
:1031E00002208DF840000CA91748FEF706F80523C9
:1031F00001220B211448FEF798F8052302220D2125
:103200001148FEF792F801210F48FEF72DF8012131
:103210000D48FEF71EF80C48FEF73DF800BF0A48BF
:10322000FEF73EF80028FAD10748FEF743F800BF42
:103230000548FEF744F80028FAD101210248FEF7BC
:1032400048F811B000BD00000024014008B501217C
:103250000C20FDF73DFD0420ADF8000002208DF8A4
:10326000020010208DF8030069460A48FDF774FA41
:103270004FF40040ADF8000069460748FDF76CFACE
:103280004FF400410448FDF714FB04210148FDF709
:1032900010FB08BD000C01400008014008B50121E9
:1032A0002820FDF715FD4FF47870ADF800001020D0
:1032B0008DF8030003208DF802006946FA48FDF7F7
:1032C0004BFA4FF47871F848FDF7F3FA0420ADF8A3
:1032D00000006946F548FDF73FFA0421F348FDF781
:1032E000E8FA08BD0022F24B1A60F24BC3F89C21A9
:1032F000002116E00022EE4B0C331A6000F0800231
:103300001AB101221B1D1A6003E00022E84B1033A2
:103310001A600122E64B0C331A60420010464A1C28
:10332000D1B20829E6DB70470022E14B1A60012286
:10333000E04BC3F89C21002116E00022DC4B0C334B
:103340001A6000F080021AB101221B1D1A6003E00E
:103350000022D74B10331A600122D54B0C331A6070
:10336000420010464A1CD1B20829E6DB704710B56E
:10337000FFF794FF0020CE490860CE49C1F89801BC
:103380006420FFF7B3F90120C949091D0860142022
:10339000FFF7ACF9E220FFF7A5FF0520FFF7A6F93C
:1033A0002C20FFF79FFF0520FFF7A0F92E20FFF745
:1033B00099FF0520FFF79AF92F20FFF793FF0520CB
:1033C000FFF794F92320FFF78DFF8120FFF78AFF95
:1033D0002820FFF787FFA220FFF784FFC820FFF710
:1033E00081FFA020FFF77EFF4020FFF77BFFAF208B
:1033F000FFF778FF0120AF49C1F8940110BD30B547
:1034000005460C460020AA49086000BF00BF05F130
:10341000B000FFF767FF102101EB1410FFF762FF08
:1034200004F00F00FFF75EFF30BD30B50020A0496B
:103430000860002411E000212046FFF7E0FF00258E
:1034400007E09D4901EBC501085DFFF76DFF681CB2
:10345000C5B2802DF5DB601CC4B2082CEBDB01206B
:103460009349086030BD30B50020914908600024C0
:103470000CE0002506E000208F4901EBC50108554E
:10348000681CC5B2802DF6DB601CC4B2082CF0DBD2
:10349000012087490860FFF7C8FF30BDF0B514462A
:1034A00000257F2801DC3F2900DDF0BD0023804F8F
:1034B0003B600B46CF1701EB5777C7F3C702CF1717
:1034C00001EB5777FF10A1EBC707FEB20123B34012
:1034D000DDB24CB1784B03EBC0039B5C2B43764FC2
:1034E00007EBC007BB5408E0734B03EBC0039B5CC6
:1034F000AB43714F07EBC007BB5401236C4F3B60DC
:1035000000BFD2E72DE9F04706460F4690469946A0
:10351000DDF820A034460CE03D4606E05246294640
:103520002046FFF7BBFF681CC5B24D45F6DD601CA9
:10353000C4B24445F0DDBDE8F087F8B504460D4659
:1035400016461F4601203B4622462946009020464B
:10355000FFF7D8FF01202B4632462946009020462F
:10356000FFF7D0FF01203B46324639460090204607
:10357000FFF7C8FF01203B463246294600903046FF
:10358000FFF7C0FFF8BDF0B5144600257F2802DD27
:10359000A0F17F03D8B23F2902DDA1F13F03D9B2E8
:1035A0000B46CF1701EB5777C7F3C702CF1701EBD5
:1035B0005777FF10A1EBC707FEB20123B340DDB27E
:1035C0004CB13D4B03EBC0039B5C2B433A4F07EBE5
:1035D000C007BB5408E0384B03EBC0039B5CAB4314
:1035E000354F07EBC007BB54F0BD38B505460C4658
:1035F00032480078401C3149087031480078A842B0
:1036000003D130480078A0420DD0002000902D4812
:1036100000781030C3B22A4802782A480178284836
:103620000078FFF76FFF254800782749097888421E
:103630000ADA0120009004F11000C3B22A462146A4
:103640002846FFF75FFF14E01F4800781B49097800
:10365000B1EB400F0ADA0020009004F11000C3B271
:103660002A4621462846FFF74DFF02E00020134975
:103670000870134805701348047038BD2DE9F04FE9
:1036800080460C4615461E46A346A5F12000C5B24D
:10369000002752E00C2E1BD105EB45000B4901EB36
:1036A000800010F8079018E0000C01400014014061
:1036B0009481214200802142100A002084090020C8
:1036C0008609002087090020850900206C4C00082D
:1036D000FE4800EB051010F807904FF0000A26E0B6
:1036E00009F0800028B121464046099AFFF7D6FE2E
:1036F00009E0099808B9012000E0002002462146AF
:103700004046FFF7CBFE4FEA49604FEA1069601C64
:10371000C4B2A4EB0B00B04205D15C4608F1010035
:1037200000F0FF0806E00AF1010000F0FF0ABAF11C
:10373000080FD5DB00BF781CC7B2B742AADBBDE8D3
:10374000F08F2DE9F04F07460C4615461E46A3465E
:103750004FF0000931E095F800804FF0000A23E0B7
:1037600008F0800028B1324621463846FFF70BFFAB
:1037700008E00EB9012000E000200246214638464C
:10378000FFF701FF4FEA48604FEA1068601CC4B2BF
:10379000A4EB0B00102803D15C46781CC7B206E0EE
:1037A0000AF1010000F0FF0ABAF1080FD8DB00BFF0
:1037B0006D1C09F1010000F0FF09B9F1200FCADB0F
:1037C000BDE8F08F2DE9F04180460D4616461F46B4
:1037D0007F2D01DDBDE8F0813F2E00DDFAE70024FA
:1037E00020E0387804EB0411B94A12F8111088422D
:1037F00016D1787804EB041102EB41014978884234
:103800000ED104EB0410114601EB4000821C43462C
:1038100031462846FFF795FF05F11000C5B203E0D9
:10382000601CC4B23E2CDCD300BF00BFD2E7F8B5A9
:1038300007460C4615461E4617E07A2C03DD002489
:1038400005F11000C5B23A2D04DD002004460546FE
:10385000FFF709FE00973278102329462046FFF72C
:103860000DFF04F10800C4B2761C30780028E4D1C2
:10387000F8BDF8B507460C4615461E4617E07A2CEB
:1038800003DD002405F11000C5B23A2D04DD00204F
:1038900004460546FFF7E7FD009732780C232946DA
:1038A0002046FFF7EBFE04F10800C4B2761C307826
:1038B0000028E4D1F8BDF8B507460D4616461C466B
:1038C0001EE07A2D00DDF8BD3A2E00DDFBE7207802
:1038D0007F280ADD2346324629463846FFF772FF25
:1038E000A41C05F11000C5B20AE00097227810234D
:1038F00031462846FFF7C2FE05F10800C5B2641C38
:1039000020780028DDD100BFDDE72DE9F0438146B6
:103910000E4690461F467F2E01DDBDE8F083B8F1CC
:103920003F0F00DDF9E7002428E0002521E0385DA5
:1039300005EB0511664A12F81110884217D1601C78
:10394000385C05EB051102EB4101497888420ED144
:1039500005EB0510114601EB4000821C4B46414629
:103960003046FFF7EEFE06F11000C6B203E0681C19
:10397000C5B23E2DDBD300BFA01CC4B2385D002809
:10398000D3D100BFC9E770B504460D461646E80618
:10399000020EE1B233460120FFF78DFF70BDF0B596
:1039A00004460D4616461F46E806020EE1B23346AF
:1039B0003846FFF780FFF0BDF8B507460E461446BF
:1039C000002522E0605D80280CDB605D803860555A
:1039D00000200090625DF006010E10233846FFF7CC
:1039E0004DFE08E001200090625DF006010E1023FC
:1039F0003846FFF743FE07F10800C7B2782F02DD13
:103A00000027B01CC6B2681CC5B2605D0028D9D1C1
:103A1000F8BD2DE9FF4F83B0BDF81410BDF80C20A0
:103A2000881A002801DB014600E0414289B2029178
:103A3000BDF81810BDF81020881A002801DB0146D7
:103A400000E0414289B201914FF00009BDF8080041
:103A5000BDF8041088420DDA4FF0010904A903A84B
:103A600000F0CFFD06A905A800F0CBFD01A902A832
:103A700000F0C7FDBDF81400BDF80C10401A002876
:103A800001DD012001E04FF0FF308246BDF8180053
:103A9000BDF81010401A002801DD012001E04FF0B0
:103AA000FF308346BDF80C40BDF81060BDF804003F
:103AB0004700BDF80400BDF80810401A4FEA40085E
:103AC000BDF80400BDF8081004E00000E050000854
:103AD0007C000020C1EB4005B9F1000F11D00BE0D4
:103AE000002D01DA3D4401E05E444544E1B2F0B20C
:103AF000109AFFF7D3FC5444BDF814008442EFD170
:103B000010E00BE0002D01DA3D4401E05E44454445
:103B1000F1B2E0B2109AFFF7C1FC5444BDF81400B2
:103B20008442EFD107B0BDE8F08F2DE9F843054698
:103B30000E4617469846089C33463A463146284674
:103B40000094FFF766FF43462A4631462846009414
:103B5000FFF75FFF43463A46414628460094FFF789
:103B600058FF43463A46314638460094FFF751FF26
:103B7000BDE8F8832DE9FF4F81B08346174699468B
:103B8000DDF838A000243D467800C0F10306B9F105
:103B9000000F1FD01BE0A0460AE01FFA88F3A2B274
:103BA000CDF800A05846029900F0E9FC08F10108A0
:103BB000A845F2DD002E04DA042000FB0460861D17
:103BC00004E0601B042101FB00666D1E641CAC4216
:103BD000E1DD17E014E0ABB2A2B2CDF800A0584688
:103BE000029900F0CCFC002E04DA042000FB0460F3
:103BF000861D04E0601B042101FB00666D1E641C31
:103C0000AC42E8DD05B0BDE8F08F00007FB50546A9
:103C10000C4601210420FDF768F8ADF80850ADF816
:103C200004400020ADF80A00ADF8060001A99A484A
:103C3000FDF7E2FE012241219748FEF754FA1E20CB
:103C40008DF8000000208DF8010003208DF802009F
:103C500001208DF803006846FCF727FC01218E48FF
:103C6000FEF726FA7FBD2DE9F74F8AB005468B4651
:103C70000024ABF1010086B2301B00F0A4FD874A9E
:103C8000874BCDE9000100F0C9FDCDE904012046D4
:103C900000F0B0FDCDE90201DDE9042300F0BEFC37
:103CA000CDE9060100F062FD1FFA80F855F8280002
:103CB0000990301B00F087FD7A4A7B4BCDE900016B
:103CC00000F0ACFDCDE90401204600F093FDCDE904
:103CD0000201DDE9042300F0A1FCCDE9060100F0BA
:103CE00045FD1FFA80F955F82900089046E0DDE906
:103CF0000810884221D94E46C14609980890301BC9
:103D000000F061FD654A664BCDE9000100F086FDDB
:103D1000CDE90401204600F06DFDCDE90201DDE9A9
:103D2000042300F07BFCCDE9060100F01FFD1FFA23
:103D300080F855F82800099020E04446C8460898C5
:103D40000990301B00F03FFD564A574BCDE900016A
:103D500000F064FDCDE90401204600F04BFDCDE903
:103D60000201DDE9042300F059FCCDE9060100F071
:103D7000FDFC1FFA80F955F829000890311B0C98BA
:103D80008142B4DCA246E7B20AE0781C55F8200074
:103D900055F82410884201D907F1010A781CC7B2EE
:103DA000B742F2DB50460DB0BDE8F08F2DE9FE4F73
:103DB000002000900190029000244FF002080121A1
:103DC0003548FEF73EFC002863D001213248FEF75B
:103DD00049FCFFF72AFB35480068354908602AE0AE
:103DE0003348006800F03FF91420FEF77FFC0025FF
:103DF00007E0304830F815002F4921F81500681CFD
:103E0000C5B2022DF5DB2A4800682C4941F8240090
:103E1000294800882A4941F8240027484088294930
:103E200041F82400601C84B22148006826490968D2
:103E300008441F4908601E480068244909688842F0
:103E4000CED9424621461E48FFF70DFF07461B48C4
:103E500050F827001E490E1A4FF47A70B6FBF0F1A5
:103E600000FB11606421B0FBF1F94FF47A70B6FBEE
:103E7000F0FA4B46524617A1684600F037F96A46F9
:103E800003212020FFF798FD14A203215020FFF703
:103E90007AFDBDE8FE8F000000080040A69BC4200C
:103EA000B072D83F2DB29DEFA7C6E33FA80900200E
:103EB000B409002078000020B8090020100E00206E
:103EC000B01D0020502D0020AC090020B0090020BA
:103ED00098D3A2002533642E2531640043000000EE
:103EE00008B501211C20FCF7F3FE4FF48060ADF80B
:103EF000000003208DF8020010208DF803006946B1
:103F00006648FCF729FC4FF4BA70ADF8000069462A
:103F10006348FCF721FC43F6FF70ADF800006946EA
:103F20006048FCF719FC08BD10B50246802100234B
:103F30005D4C2360002015E002EA010323B9002351
:103F4000594C0C34236003E00123574C0C3423609C
:103F50000123554C236049100023544CC4F8883188
:103F6000431CD8B20828E7DB10BD70B5FFF7B8FFD7
:103F700000204F4908604E49243908604C490C39EB
:103F800008604B49203908604749083108604849B2
:103F90003039086001204549C1F898010520FEF735
:103FA000A5FB002040491031086042490860FFF736
:103FB000BBFF002505E04049485DFFF7B5FF681CE1
:103FC000C5B2042DF7DB01203A490860002401E066
:103FD000601CC4B20A2CFBDB0020364908600220BA
:103FE000FFF7A2FF002505E03449485DFFF79CFF7D
:103FF000681CC5B2042DF7DB01202E49086000249F
:1040000001E0601CC4B20A2CFBDB012028492839DE
:104010000860002401E0601CC4B20A2CFBDB002015
:104020002349283908600120FEF760FB70BD10B5F8
:104030000020204908600E20FFF776FF002405E0ED
:104040001F49085DFFF770FF601CC4B2082CF7DB46
:104050000120184908601B49C1F88C01002014494F
:104060002839086010BD2DE9F0478146484600F028
:10407000C1FB0746144A154B00F0D0FB054600F083
:1040800075FB04460E49CC71200A8871200C4871DA
:10409000200E0871FFF7CBFFBDE8F087000C014050
:1040A0000008014000100140880121420000214227
:1040B000B4012242A8812142D0560008D8560008F7
:1040C000BC0900200000224295D626E80B2E1140A4
:1040D000704700000FB4044910B503AA029800F01D
:1040E00001FA10BC5DF814FB340000200FB41CB5BD
:1040F000074B06AA7B4469460090059800F0C3F977
:104100000020694600F0D2F91CBC5DF814FB0000E9
:10411000B503000070B5044685690068C10601D585
:10412000302600E02026C00707D070BDD4E9012169
:1041300030469047206A401C20626D1EF6D570BD47
:1041400070B5044685690078C00707D170BDD4E911
:10415000012120209047206A401C20626D1EF6D568
:1041600070BD70B50C460546012A05D0287880063A
:1041700000D5EA69002302E0012305E05B1C9342BD
:1041800002D2E05C0028F9D1A869E618C01AA8613B
:10419000286A184428622846FFF7BCFF04E0D5E9E6
:1041A000012114F8010B9047B442F8D32846FFF7D9
:1041B000C7FF70BD2DE9F04106460024106875293F
:1041C000314616A510D0AFF30080002802DA404235
:1041D00013A507E031688A0701D512A502E0490757
:1041E00004D511A5012401E0AFF3008000210A22CB
:1041F00006F1240709E0B0FBF2FCB0FBF2F302FB8E
:104200001C00303078541846491C0028F3D123464E
:104210002A463046BDE8F04100F0D6B80000000064
:104220002D0000002B0000002000000070B50446A7
:104230000D4621461068AFF300802188090502D59C
:104240000F4A7A4402E00E4A7A440E32002104F109
:10425000240305E000F00F060009965D5E54491C3A
:104260000028F7D120780023000704D5702D02D054
:1042700009B1022311322046BDE8704000F0A4B815
:10428000961400002DE9F05F894604464FF0000ABD
:10429000DFF824B1FB44C0F820A02046E16888473D
:1042A00000287DD0252806D0D4E901219047206A36
:1042B000401C2062F1E700255F462046E168884700
:1042C0002028064607DB312E05D2B81910F8200C3D
:1042D00008B10543F1E7A80701D525F00405C4F8A6
:1042E0001CA00027C4F818A02A2E09D0304600F0E0
:1042F0003FF938B304EB8708303EC8F8186019E07E
:1043000059F8041B204604EB87029161E168884755
:10431000012F064618D1E069002820DA25F0200593
:104320001DE0D8F8180000EB800006EB40003038A4
:10433000C8F818002046E1688847064600F018F9DA
:104340000028EED1012F0AD02E2E08D12046E16898
:1043500088477F1C0646022F45F02005C4DBA06974
:10436000002803DA404245F00105A061E80701D0CA
:1043700025F01005A6B1A6F14100192802D8203673
:1043800045F400654A463146204625604D46FBF718
:1043900007FF60B1012807D0ED1D25F0070000E000
:1043A00007E000F1080978E705F1040975E73046F0
:1043B0007AE7206ABDE8F09F6C140000FEF74FBB5F
:1043C00070477047704770472DE9F0470D46994692
:1043D0009246044600F124080168880604D5E06985
:1043E00021F01001216000E00120A84201DD471BFF
:1043F00000E00027A1697A1902EB0900081AA06100
:104400002078C00602D42046FFF784FE002608E08C
:10441000D4E901211AF806009047206A401C761C56
:1044200020624E45F4DB2078C0060AD52046FFF70F
:1044300071FE06E0D4E9012130209047206A401C3B
:104440002062381EA7F10107F4DC07E0D4E901215E
:1044500018F805009047206A401C2062281EA5F12C
:104460000105F3DC2046FFF76BFE2078000602D53D
:104470000220BDE8F0870120FBE7000001694A1C2B
:1044800002610878704700B58FB0CDE90131002195
:10449000059105497944CDE9031011466846FFF7B7
:1044A000F1FE0FB000BD0000E5FFFFFF0A6802F853
:1044B000010B0A60704710B5436913B1AFF3008078
:1044C00001E0FFF74EFE012010BD127800F124013B
:1044D0000A7000224A700122EDE711684FF0FF32A6
:1044E000E9E70000074B70B50D467B44FFF7CBFFB3
:1044F0000446284600F008F810B14FF0FF3070BDB8
:10450000204670BD71E5FFFF007B00F08000704722
:10451000754600F029F8AE4605006946534620F07E
:104520000700854618B020B5FBF7A8FFBDE820407E
:104530004FF000064FF000074FF000084FF0000B5F
:1045400021F00701AC46ACE8C009ACE8C009ACE812
:10455000C009ACE8C0098D4670470446AFF300803F
:104560002046FBF735FE000000487047F03C002075
:1045700030380A2801D201207047002070472DE909
:10458000F04104460D4616461F46DDF81880EA192C
:10459000D1B2A219D0B24246FEF780FFEA19D1B2D9
:1045A000A21BD0B24246FEF779FFEA1BD1B2A21994
:1045B000D0B24246FEF772FFEA1BD1B2A21BD0B2C4
:1045C0004246FEF76BFFAA19D1B2E219D0B24246B9
:1045D000FEF764FFAA19D1B2E21BD0B24246FEF741
:1045E0005DFFAA1BD1B2E219D0B24246FEF756FFD8
:1045F000AA1BD1B2E21BD0B24246FEF74FFFBDE884
:10460000F08102880B885A4002800A8803885A4049
:104610000A8002880B885A400280704710B591EAE0
:10462000030F48BF83F0004300F1FE81841A71EB51
:10463000030C05D2121943EB0C03001B61EB0C01B8
:10464000DFF824E14FEA1154A4EB135C1EEA430F98
:1046500018BF9EEA445F73D023EA0E03DCF1200EFC
:1046600021EA045143F4801332D322FA0CFE10EBFA
:104670000E0023FA0CFE41EB0E01CCF1200E03FAE2
:104680000EFE10EB0E0051F10001B1F5801FCCF1D0
:10469000200E32D201EB045112FA0EF2BDE81040A6
:1046A00058BF7047401C38BF5FEA420218BF7047CE
:1046B000002814BF20F0010041F100014FEA41033E
:1046C00013F5001F38BF7047A1F1C04100F09EB93B
:1046D000012A43EB0302ACF1200CDCF11F0E32BFC8
:1046E0004FF0000E23FA0CF310EB030041EB0451E2
:1046F000B4EB115FD0D0A1EB045101F58011490852
:104700005FEA300001EB04510ED350F1000038BFD6
:1047100012FA0EFE08D1BDE81040C9E7401C38BFB0
:104720005FEA4202CAD1C3E7BDE810404FEA410345
:1047300013F5001F38BF7047A1F1C04100F066B902
:104740009EEA445F08D011EA5E0FBDE8104004BF46
:1047500001F0004100207047BDE8104070B500F046
:1047600007F900BF64FBBE3E0000E0FF4FEA1153B3
:10477000A3F58063D3F11E03A8BFD3F1200C08DB9F
:104780004FF0004242EAC12252EA505232FA03F09C
:10479000704709420BD4102BC4BF0020704703F5AB
:1047A000787CBCF1FF3F05D04FF0FF3070474FF0F1
:1047B0000000704770B500F0DBF800BF499224801C
:1047C00000207047F0E710F0004248BF4042B0FAC6
:1047D00080F310FA03F10AD0C3F11D0303F58063DF
:1047E0004FEA415002EB035202EBD12170474FF0E8
:1047F00000007047B0FA80F310FA03F10AD0C3F159
:104800001D0303F580634FEA41504FEA035202EB68
:10481000D12170474FF0000070470000DFF848C119
:1048200070B51CEA111E1EBF1CEA13159EEA0C0F80
:1048300095EA0C0F00F06F8081EA030423EA4C1321
:104840004EEAD47E21EA4C1141F4801143F48013E6
:10485000AE44A1FB024CA0FB0365AEF17F7E36198E
:1048600055EB0C05A1FB034C4CF10003A0FB021C13
:1048700016EB0C06654153F10003094218BF46F0E0
:10488000010613F4007F0BD14FEA03314FEA0530E4
:10489000340341EA155140EA16506FF003020AE072
:1048A0004FEAC3214FEAC520F40241EA555140EADC
:1048B00056506FF0020202EB2E4201EB025585EAE0
:1048C000CE710AD05FEA440C18BF24F0004450F1C6
:1048D000000041F1000120EAD47040F2FE7C624504
:1048E00000D270BDA84214BF4FF080444FF0404446
:1048F000002E08BF0024BEF1806FA8BFA1F1C04107
:10490000BDE8704080F282804FF0000001F1C041AC
:1049100001F0004170479EEA0C0F0CEA131518BF16
:1049200095EA0C0F06D04FF0000081EA030E0EF05E
:10493000004170BD00F01CF88900013E00F007B88E
:1049400000F009B84FEA430C5FEA5C5C08D081EAEA
:10495000030100F05BB84FEA410C5FEA5C5CF6D102
:104960004FF00000014970470000FF070000F87F8A
:104970000EF1020E2EF0030E5EF8046B364205D4E3
:10498000012A43EB030515F5001F12D8012841EB5E
:10499000010C1CF5001F0CD80ED14FEAD17C15F587
:1049A000001F0CEB4C0C0CF1020C08BF4CEBD37C41
:1049B00004E04FF0080C01E04FEAD37C0CEB4C050F
:1049C00026FA05F606F00706B6F1040C06D20EEB41
:1049D000860CBDE870404CF0010C6047DFE80CF03D
:1049E000090B02024FF000414FF00000A1F5002139
:1049F00070BD19461046012851EB010418BFD4F5CB
:104A0000001484BF002001F0004170BD0808A0F52B
:104A100000114FEA3101704710B591EA030F48BF0A
:104A200083F000433FF502AE841A71EB030C07D20A
:104A300012198CF0004C43EB0C03001B61EB0C01D2
:104A4000DFF8A4E14FEA1154A4EB135C1EEA430F14
:104A500018BF9EEA445F00F0B08023EA6E03524222
:104A600021EA0451C3EB6E0338BF5B1EDCF1200E5C
:104A700025D322FA0CFE10EB0E0043FA0CFE41EB9C
:104A80000E01CCF1200E03FA0EFE10EB0E0051F1D8
:104A90000001CCF1200E29D412FA0EF201EB0451E0
:104AA000BDE8104058BF7047401C1CBFB2F1004F1A
:104AB000704700280CBF491C20F00100704712EB22
:104AC000020E43EB030218BF4FF0010E4EEA420202
:104AD000ACF1200CDCF11E0E54D943FA0CFE10EBA5
:104AE0000E0051F1FF31CCF11E0ED5D50EF1010EA5
:104AF00012FA0EFE404141EB010101EB445C5FEA1A
:104B00005C5C10D910EBDE7001EB045138BFBEF1D4
:104B1000004FBDE8104018BF704700280CBF491C6B
:104B200020F00100704730D24FEAD42C11F500116B
:104B300024F400641BD0B1FA81F20B3AA41AA41E2B
:104B4000D2F12003914030FA03F31943904001EB76
:104B5000CC71002C01EB0451BDE81040A8BF704798
:104B600001F1C0414FF0000001F000417047B0FA80
:104B700080F310FA03F100D110BDE41A173C480588
:104B8000C90AE4E701EB045110BD491001EB0451DF
:104B9000BDE810404FEA300002E04FF000017047DE
:104BA0004A0008BF0042F8D0B2F5001F28BF704786
:104BB00001F000414FF0000070479EEA445F07D0CB
:104BC00011EA5E0FBDE8104004BF002100207047CD
:104BD000BDE8104070B5FFF7CBFE00BF40DFF63EEA
:104BE00083F00041104670470000E0FF0600070018
:104BF0000800090040008000000100028000000061
:104C00008000000080000000800000000800030019
:104C10000D00000000010800002001000400000059
:104C20002000000010000000040000000001080047
:104C30000020010000000300020000000800030043
:104C40000D000000170009002800060000400000C9
:104C50000000020004000000040000000400000046
:104C6000040000000002040000040800000000002E
:104C70000000000000000000000000003F400000B5
:104C80000000000000003000400030004000000044
:104C900009000BC03D000BC03D00090018C02440B6
:104CA0007FE0224031800000180024C01B000D80EE
:104CB0003240018003801C4027401C800740004098
:104CC0001000600000000000000000000000000074
:104CD00000001F80204040200000402020401F8016
:104CE00000000000090006001F8006000900000007
:104CF000040004003F800400040000000010006075
:104D00000000000000000000040004000400040093
:104D1000040000000000004000000000000000004F
:104D2000002001C006003800400000001F80204025
:104D3000204020401F800000000010403FC0004085
:104D40000000000018C0214022402440184000000C
:104D500010802040244024401B80000002000D00F1
:104D600011003FC0014000003C802440244024400A
:104D7000238000001F802440244034400380000032
:104D80003000200027C03800200000001B80244095
:104D9000244024401B8000001C0022C022402240EE
:104DA0001F8000000000000008400000000000001C
:104DB000000000000460000000000000000004008B
:104DC0000A00110020804040090009000900090084
:104DD0000900000000004040208011000A0004008B
:104DE0001800200023402400180000001F802040ED
:104DF000274029401F400000004007C039000F0035
:104E000001C0004020403FC0244024401B800000DF
:104E10001F802040204020403080000020403FC0C4
:104E2000204020401F80000020403FC024402E40F2
:104E300030C0000020403FC024402E003000000061
:104E40000F001080204022403380020020403FC0ED
:104E5000040004003FC02040204020403FC02040CC
:104E6000204000000060202020203FC020002000C3
:104E700020403FC024400B0030C0204020403FC0B5
:104E800020400040004000C03FC03C0003C03C0048
:104E90003FC0000020403FC00C4023003FC0200026
:104EA0001F802040204020401F80000020403FC045
:104EB00024402400180000001F802140214020E0F1
:104EC0001FA0000020403FC02440260019C0004021
:104ED00018C024402440224031800000300020408F
:104EE0003FC020403000000020003F8000400040D4
:104EF0003F80200020003E0001C007003800200055
:104F0000380007C03C0007C038000000204039C00E
:104F1000060039C0204000002000384007C038405B
:104F200020000000304021C02640384020C0000052
:104F3000000000007FE040204020000000007000E2
:104F40000C000380004000000000402040207FE073
:104F500000000000000020004000200000000000D1
:104F600000100010001000100010001000000000E1
:104F700040000000000000000000028005400540E5
:104F800003C0004020003FC00440044003800000F4
:104F9000000003800440044006400000000003803D
:104FA000044024403FC0004000000380054005400D
:104FB00003400000000004401FC0244024402000A3
:104FC000000002E0055005500650042020403FC07C
:104FD0000440040003C000400000044027C000401B
:104FE0000000000000100010041027E00000000086
:104FF00020403FC00140070004C004402040204042
:105000003FC000400040000007C0040007C004008B
:1050100003C00000044007C00440040003C0004077
:10502000000003800440044003800000041007F0E7
:10503000045004400380000000000380044004503A
:1050400007F00010044007C0024004000400000004
:10505000000006400540054004C0000000000400B8
:105060001F8004400040000004000780004004400E
:1050700007C000400400070004C0018006000400CF
:10508000060001C0070001C006000000044006C081
:10509000010006C0044000000410071004E0018075
:1050A000060004000000044005C006400440000063
:1050B0000000000004007BE0402000000000000031
:1050C0000000FFF000000000000040207BE0040032
:1050D0000000000040008000400020002000400050
:1050E00000000000000000000000000000000000C0
:1050F0000000000000001FCC000C000000000000B9
:10510000000008003000600008003000600000006F
:10511000022003FC1E20022003FC1E2002200000AF
:1051200000000E1811043FFF10840C7800000000EE
:105130000F0010840F3800C0077818840078000032
:1051400000780F8410C411240E9800E40084000835
:10515000080068007000000000000000000000006F
:1051600000000000000007E01818200440020000C2
:10517000000040022004181807E0000000000000B2
:105180000240024001800FF0018002400240000016
:105190000080008000800FF8008000800080000008
:1051A0000001000D000E00000000000000000000E3
:1051B000000000800080008000800080008000806F
:1051C0000000000C000C00000000000000000000C7
:1051D0000000000600180060018006001800200092
:1051E000000007F0080810041004080807F0000089
:1051F0000000080408041FFC000400040000000074
:1052000000000E0C10141024104411840E0C000029
:1052100000000C1810041104110412880C70000016
:10522000000000E00320042408241FFC00240000E8
:1052300000001F98108411041104108810700000E1
:10524000000007F00888110411041888007000009D
:1052500000001C00100010FC13001C0010000000D7
:1052600000000E3811441084108411440E380000E0
:1052700000000700088C10441044088807F0000064
:10528000000000000000030C030C00000000000000
:105290000000000000010106000000000000000006
:1052A00000000080014002200410080810040000E3
:1052B0000220022002200220022002200220000000
:1052C00000001004080804100220014000800000C3
:1052D00000000E001200100C106C10800F00000077
:1052E00003E00C1813E4142417C4082807D00000A6
:1052F0000004003C03C41C40074000E4001C000400
:1053000010041FFC1104110411040E880070000029
:1053100003E00C1810041004100410081C10000006
:1053200010041FFC100410041004080807F000000B
:1053300010041FFC1104110417C410040818000005
:1053400010041FFC1104110017C010000800000019
:1053500003E00C181004100410441C7800400000F6
:1053600010041FFC10840080008010841FFC1004B7
:105370000000100410041FFC1004100400000000C2
:1053800000030001100110011FFE100010000000BA
:1053900010041FFC110403801464181C1004000086
:1053A00010041FFC1004000400040004000C0000A2
:1053B00010041FFC1F0000FC1F001FFC1004000055
:1053C00010041FFC0C04030000E010181FFC100068
:1053D00007F00808100410041004080807F0000083
:1053E00010041FFC10841080108010800F0000003B
:1053F00007F0081810241024101C080A07F20000F7
:1054000010041FFC1104110011C011300E0C000417
:1054100000000E1C11041084108410441C3800007D
:105420001800100010041FFC1004100018000000E9
:1054300010001FF810040004000410041FF81000EE
:1054400010001E0011E0001C007013801C001000F2
:105450001FC0103C00E01F0000E0103C1FC0000017
:105460001004180C163401C001C01634180C1004B6
:1054700010001C00130400FC13041C0010000000AA
:105480000804101C1064108413041C04101800007D
:105490000000000000007FFE4002400240020000C9
:1054A000000030000C0003800060001C00030000BE
:1054B00000004002400240027FFE000000000000A9
:1054C00000000000200040004000400020000000DC
:1054D00000010001000100010001000100010001C4
:1054E000000040004000200000000000000000001C
:1054F00000000098012401440144014400FC000420
:1055000010001FFC008801040104008800700000E6
:1055100000000070008801040104010400880000FC
:105520000000007000880104010411081FFC000441
:10553000000000F8014401440144014400C8000097
:105540000000010401040FFC1104110411001800F3
:10555000000000D601290129012901C90106000026
:1055600010041FFC008401000100010400FC000481
:1055700000000104190419FC0004000400000000EC
:105580000000000300010101190119FE00000000E4
:1055900010041FFC0024004001B4010C01040000B1
:1055A0000000100410041FFC0004000400000000B0
:1055B000010401FC0104010001FC0104010000FCE4
:1055C000010401FC008401000100010400FC00044E
:1055D000000000F8010401040104010400F80000C7
:1055E000010101FF00850104010400880070000032
:1055F00000000070008801040104010501FF0001A2
:105600000104010401FC0084010401000180000088
:10561000000000CC01240124012401240198000091
:1056200000000100010007F801040104000000006F
:10563000010001F8000400040004010801FC00045A
:10564000010001800170000C001001600180010068
:1056500001F0010C003001C00030010C01F001002C
:1056600000000104018C00740170018C0104000031
:10567000010101810171000E00180160018001002B
:1056800000000184010C013401440184010C00007C
:10569000000000000000000001003EFC400240024B
:1056A0000000000000000000FFFF000000000000FC
:1056B0000000400240023EFC01000000000000002B
:1056C00000006000800080004000400020002000BA
:1056D0000040000001000000050F4132303132333C
:1056E0003435363738394142434445464030580016
:1056F0003031323334353637383961626364656648
:1057000040307800040000080000000000000002A3
:1057100000010000100000000A0D20232323232392
:1057200023232323232323205757572E41524D4A07
:10573000495348552E434F4D212023232323232310
:1057400023232323232320284A756E20203620324A
:10575000303137202D2031353A31313A3135290079
:105760008057000800000020C4090000280100083C
:10577000905F0008C40900208C39000084010008F3
:105780009184A24A04680901020304060708090C6F
:105790006910051102040608BC1C0140041A080423
:1057A0001A14045A100C1A38041244490CA9043172
:1057B00014D7D30112014A41021702410147FE45A5
:1057C000124912511A61161A03042113CDFE120256
:1057D000101A041FF814A214D41788149514E2FEAA
:1057E0008411C85038302410C2130122071BBFB5E2
:1057F00022181B0C3FF022022AC42AA82A92AA814E
:105800007FFE2AA02A902A882F94622622D423B5CC
:10581000E74D1FE01240024DFFFC124202153FE22D
:105820001002420E1CB1E301451C0FFFF0EF2015E2
:105830004FC14AA24A944A887FF44A844A824A82E3
:10584000DFC34802100CD0AF084008420881FFFEB9
:1058500009180B1021FFE22ABCAAA07FA07046BA4B
:105860006AA9208E14CABD08181C08040906090478
:1058700009F8090809080810FF800860481828047A
:105880000802180108683020C6B502103EE1020285
:10589000FFF4120836F052014FF1480258046BF839
:1058A00048044802DFF34813C2CA101C1028902590
:1058B00010221020902490AD9076FF249029902003
:1058C000D02210651028B022102021D4B408204422
:1058D00020267F3082010C7FF0400447C8455A4D96
:1058E00041757E45404550CFC8440C1BB3F5AA1303
:1058F0008089176BFF0C80194118100210041018D2
:105900001FE01002100110023FFC43111010CABC2E
:10591000080208440FA8F81008680F860218080645
:105920007F1A42E2420202270A4206FF034014BBEA
:10593000AF0112021204241FFFE0122012401808C7
:1059400080FFFC02020402CA1A021919CC101FBD02
:10595000DF100817CC90087070179010507CBC5561
:1059600004569454E454965481FC8241FC1A808875
:1059700013CF0212421333FC12092016121FFC111E
:1059800010110811F21004FFC8103850C63301106E
:105990000714CEAA04100E04020404440824103490
:1059A0002004C007300EFC4004200432040104022D
:1059B0000FFC041BC4FA76130C0810143FEEC4014C
:1059C00008813111E649202D2FC12001220729131A
:1059D0003188220613B7FE19AB100C7FFC444044FB
:1059E000424441FFFE40180D7FFF410241EC45104B
:1059F000FD2C41C3AC1113CEF1181880048008812E
:105A00001141F1422A4C2BF024402A422A413142D2
:105A1000217CA62AC0AAA3A1FC1202120C123C1CD3
:105A20007FFE3C08193D71B3A1FD124012301C3CB1
:105A30007FFE271A300C692242FB1201180C0380EA
:105A4000038007C007C00920010E890219224AFA03
:105A500022A9022B09202C29342922100CC9A808BC
:105A60004008420881FFFE09120A9C2004210234EA
:105A70007FFE202BB5E3EE401903EC022002280242
:105A800026FE20122812241226122017E8320410B3
:105A90000313CCF82012047CFE440447FC4489FC28
:105AA000AA44440298FFE01009FFFC028204620C41
:105AB00002220E100CD2C62420244025807FFFC570
:105AC000101344C1080111113122EA622794248C79
:105AD000288830B022C01008CFE0082008C00B147E
